{
  "contractName": "TodoList",
  "abi": [
    {
      "anonymous": false,
      "inputs": [
        {
          "indexed": false,
          "internalType": "uint256",
          "name": "id",
          "type": "uint256"
        },
        {
          "indexed": false,
          "internalType": "bool",
          "name": "completed",
          "type": "bool"
        }
      ],
      "name": "TaskCompleted",
      "type": "event"
    },
    {
      "anonymous": false,
      "inputs": [
        {
          "indexed": false,
          "internalType": "uint256",
          "name": "id",
          "type": "uint256"
        },
        {
          "indexed": false,
          "internalType": "string",
          "name": "content",
          "type": "string"
        },
        {
          "indexed": false,
          "internalType": "bool",
          "name": "completed",
          "type": "bool"
        }
      ],
      "name": "TaskCreated",
      "type": "event"
    },
    {
      "anonymous": false,
      "inputs": [
        {
          "indexed": false,
          "internalType": "uint256",
          "name": "id",
          "type": "uint256"
        }
      ],
      "name": "TaskDeleted",
      "type": "event"
    },
    {
      "inputs": [],
      "name": "taskCount",
      "outputs": [
        {
          "internalType": "uint256",
          "name": "",
          "type": "uint256"
        }
      ],
      "stateMutability": "view",
      "type": "function",
      "constant": true
    },
    {
      "inputs": [
        {
          "internalType": "uint256",
          "name": "",
          "type": "uint256"
        }
      ],
      "name": "tasks",
      "outputs": [
        {
          "internalType": "uint256",
          "name": "id",
          "type": "uint256"
        },
        {
          "internalType": "string",
          "name": "content",
          "type": "string"
        },
        {
          "internalType": "bool",
          "name": "completed",
          "type": "bool"
        }
      ],
      "stateMutability": "view",
      "type": "function",
      "constant": true
    },
    {
      "inputs": [
        {
          "internalType": "string",
          "name": "_content",
          "type": "string"
        },
        {
          "internalType": "uint256",
          "name": "_id",
          "type": "uint256"
        }
      ],
      "name": "taskCreated",
      "outputs": [],
      "stateMutability": "nonpayable",
      "type": "function"
    },
    {
      "inputs": [
        {
          "internalType": "uint256",
          "name": "_id",
          "type": "uint256"
        }
      ],
      "name": "toggleCompleted",
      "outputs": [],
      "stateMutability": "nonpayable",
      "type": "function"
    },
    {
      "inputs": [
        {
          "internalType": "uint256",
          "name": "_id",
          "type": "uint256"
        }
      ],
      "name": "deleteTask",
      "outputs": [],
      "stateMutability": "nonpayable",
      "type": "function"
    }
  ],
  "bytecode": "0x60806040526000805534801561001457600080fd5b50610b69806100246000396000f3fe608060405234801561001057600080fd5b5060043610610074576000357c010000000000000000000000000000000000000000000000000000000090048063455f502414610079578063560f3192146100955780636954e79f146100b15780638d977672146100cd578063b6cb58a5146100ff575b600080fd5b610093600480360381019061008e91906107c4565b61011d565b005b6100af60048036038101906100aa91906107c4565b6102f2565b005b6100cb60048036038101906100c69190610768565b61041b565b005b6100e760048036038101906100e291906107c4565b6104ee565b6040516100f69392919061088c565b60405180910390f35b6101076105ad565b6040516101149190610848565b60405180910390f35b600080600190505b600054811161016757826001600083815260200190815260200160002060000154141561015457809150610167565b808061015f90610a21565b915050610125565b50600060016000838152602001908152602001600020604051806060016040529081600082015481526020016001820180546101a2906109be565b80601f01602080910402602001604051908101604052809291908181526020018280546101ce906109be565b801561021b5780601f106101f05761010080835404028352916020019161021b565b820191906000526020600020905b8154815290600101906020018083116101fe57829003601f168201915b505050505081526020016002820160009054906101000a900460ff16151515158152505090506001816040019015159081151581525050806001600084815260200190815260200160002060008201518160000155602082015181600101908051906020019061028c9291906105b3565b5060408201518160020160006101000a81548160ff0219169083151502179055509050507fe21fa966ca5cd02748c0752352d18c48165e61cb55b4c29cccf924b5a95fcff18382604001516040516102e5929190610863565b60405180910390a1505050565b600080600190505b600054811161033c5782600160008381526020019081526020016000206000015414156103295780915061033c565b808061033490610a21565b9150506102fa565b506000548110156103c95760016000805481526020019081526020016000206001600083815260200190815260200160002060008201548160000155600182018160010190805461038c906109be565b610397929190610639565b506002820160009054906101000a900460ff168160020160006101000a81548160ff0219169083151502179055509050505b6000808154809291906103db90610994565b91905055507fd078b251d950cc55c44340be1db732337ef4939a76e1367ee271ad2cb19c46af8260405161040f9190610848565b60405180910390a15050565b60008081548092919061042d90610a21565b9190505550604051806060016040528082815260200183815260200160001515815250600160008054815260200190815260200160002060008201518160000155602082015181600101908051906020019061048a9291906105b3565b5060408201518160020160006101000a81548160ff0219169083151502179055509050507f05d0fb833127fc08168556d0e7ca9554fc3f6bc843b3b7d2bf1c35aea6bab660818360006040516104e29392919061088c565b60405180910390a15050565b6001602052806000526040600020600091509050806000015490806001018054610517906109be565b80601f0160208091040260200160405190810160405280929190818152602001828054610543906109be565b80156105905780601f1061056557610100808354040283529160200191610590565b820191906000526020600020905b81548152906001019060200180831161057357829003601f168201915b5050505050908060020160009054906101000a900460ff16905083565b60005481565b8280546105bf906109be565b90600052602060002090601f0160209004810192826105e15760008555610628565b82601f106105fa57805160ff1916838001178555610628565b82800160010185558215610628579182015b8281111561062757825182559160200191906001019061060c565b5b50905061063591906106c6565b5090565b828054610645906109be565b90600052602060002090601f01602090048101928261066757600085556106b5565b82601f1061067857805485556106b5565b828001600101855582156106b557600052602060002091601f016020900482015b828111156106b4578254825591600101919060010190610699565b5b5090506106c291906106c6565b5090565b5b808211156106df5760008160009055506001016106c7565b5090565b60006106f66106f1846108ef565b6108ca565b90508281526020810184848401111561071257610711610afc565b5b61071d848285610952565b509392505050565b600082601f83011261073a57610739610af7565b5b813561074a8482602086016106e3565b91505092915050565b60008135905061076281610b1c565b92915050565b6000806040838503121561077f5761077e610b06565b5b600083013567ffffffffffffffff81111561079d5761079c610b01565b5b6107a985828601610725565b92505060206107ba85828601610753565b9150509250929050565b6000602082840312156107da576107d9610b06565b5b60006107e884828501610753565b91505092915050565b6107fa8161093c565b82525050565b600061080b82610920565b610815818561092b565b9350610825818560208601610961565b61082e81610b0b565b840191505092915050565b61084281610948565b82525050565b600060208201905061085d6000830184610839565b92915050565b60006040820190506108786000830185610839565b61088560208301846107f1565b9392505050565b60006060820190506108a16000830186610839565b81810360208301526108b38185610800565b90506108c260408301846107f1565b949350505050565b60006108d46108e5565b90506108e082826109f0565b919050565b6000604051905090565b600067ffffffffffffffff82111561090a57610909610ac8565b5b61091382610b0b565b9050602081019050919050565b600081519050919050565b600082825260208201905092915050565b60008115159050919050565b6000819050919050565b82818337600083830152505050565b60005b8381101561097f578082015181840152602081019050610964565b8381111561098e576000848401525b50505050565b600061099f82610948565b915060008214156109b3576109b2610a6a565b5b600182039050919050565b600060028204905060018216806109d657607f821691505b602082108114156109ea576109e9610a99565b5b50919050565b6109f982610b0b565b810181811067ffffffffffffffff82111715610a1857610a17610ac8565b5b80604052505050565b6000610a2c82610948565b91507fffffffffffffffffffffffffffffffffffffffffffffffffffffffffffffffff821415610a5f57610a5e610a6a565b5b600182019050919050565b7f4e487b7100000000000000000000000000000000000000000000000000000000600052601160045260246000fd5b7f4e487b7100000000000000000000000000000000000000000000000000000000600052602260045260246000fd5b7f4e487b7100000000000000000000000000000000000000000000000000000000600052604160045260246000fd5b600080fd5b600080fd5b600080fd5b600080fd5b6000601f19601f8301169050919050565b610b2581610948565b8114610b3057600080fd5b5056fea26469706673582212202284c81cdb13100e14fc22079f9b7f2468110ce4dea7020d3428ac978b11814064736f6c63430008060033",
  "immutableReferences": {},
  "source": "// SPDX-License-Identifier: MIT\npragma solidity ^0.8.6;\n\ncontract TodoList {\n    uint public taskCount = 0;\n\n    struct Task {\n        uint id;\n        string content;\n        bool completed;\n    }\n\n    mapping(uint => Task) public tasks;\n\n    event TaskCreated  (\n        uint id,\n        string content,\n        bool completed\n    );\n\n\n    event TaskCompleted  (\n        uint id,\n        bool completed\n    );\n\n    event TaskDeleted (\n        uint id\n    );\n\n    function taskCreated(string memory _content , uint _id) public {\n        taskCount++;\n        tasks[taskCount] = Task(_id , _content , false);\n        emit TaskCreated(_id, _content, false);\n    }\n\n    function toggleCompleted(uint _id) public {\n        uint indexToBeUpdated;\n       for(uint i=1 ; i<=taskCount ; i++){\n           if(tasks[i].id == _id){\n               indexToBeUpdated = i;\n               break;\n           }\n       }\n       Task memory _task = tasks[indexToBeUpdated];\n       _task.completed = true;\n       tasks[indexToBeUpdated] = _task;\n       emit TaskCompleted(_id, _task.completed);\n    }\n\n    function deleteTask(uint _id) public {\n        uint indexToBeDeleted;\n        for(uint i=1 ; i<=taskCount ; i++){\n            if(tasks[i].id == _id){\n                indexToBeDeleted = i;\n                break;\n            }\n        }\n\n// here we are checking if the index to be deleted is not the last element and if its true than we will swap to last element from the index to be deleted and than we will delete the last element\n        if(indexToBeDeleted < taskCount){\n            tasks[indexToBeDeleted] = tasks[taskCount];\n        }\n\n        taskCount--;\n        emit TaskDeleted(_id);\n        \n    }\n\n}",
  "sourcePath": "/home/ahsen/Documents/DApp/Todo-Dapp/Backend/contracts/TodoList.sol",
  "compiler": {
    "name": "solc",
    "version": "0.8.6+commit.11564f7e.Emscripten.clang"
  },
  "schemaVersion": "3.4.3",
  "updatedAt": "2021-09-16T15:27:17.892Z",
  "networkType": "ethereum",
  "devdoc": {
    "kind": "dev",
    "methods": {},
    "version": 1
  },
  "userdoc": {
    "kind": "user",
    "methods": {},
    "version": 1
  }
}